:100000000C9462000C948A000C948A000C948A0070
:100010000C948A000C948A000C948A000C948A0038
:100020000C948A000C948A000C948A000C948A0028
:100030000C948A000C948A000C948A000C948A0018
:100040000C9499040C948A000C948A000C948A00F5
:100050000C948A000C948A000C948A000C948A00F8
:100060000C948A000C948A000000000024002700F1
:100070002A0000000000250028002B0000000000DE
:1000800023002600290004040404040404040202DA
:100090000202020203030303030301020408102007
:1000A0004080010204081020010204081020000012
:1000B0000008000201000003040700000000000027
:1000C0000000670611241FBECFEFD8E0DEBFCDBF12
:1000D00011E0A0E0B1E0ECE2F0E102C005900D9289
:1000E000A438B107D9F721E0A4E8B1E001C01D921E
:1000F000A93AB207E1F710E0C2E6D0E004C02197C8
:10010000FE010E940E08C136D107C9F70E942805DA
:100110000C9414080C940000AF92BF92CF92DF921F
:10012000EF92FF920F931F93CF93DF936C017B01AC
:100130008B01040F151FEB015E01AE18BF08C0173D
:10014000D10759F06991D601ED91FC910190F081B0
:10015000E02DC6010995892B79F7C501DF91CF9173
:100160001F910F91FF90EF90DF90CF90BF90AF90D5
:100170000895833081F028F4813099F08230A9F01D
:1001800008958730A9F08830C9F08430B1F48091A7
:1001900080008F7D03C0809180008F7780938000E6
:1001A000089584B58F7784BD089584B58F7DFBCF86
:1001B0008091B0008F778093B00008958091B00057
:1001C0008F7DF9CF1F93CF93DF93282F30E0F90174
:1001D000E255FF4F8491F901E656FF4FD491F901A2
:1001E000EA57FF4FC491CC23A9F0162F81110E942A
:1001F000B900EC2FF0E0EE0FFF1FEE58FF4FA59176
:10020000B4918FB7F894EC91111108C0D095DE230A
:10021000DC938FBFDF91CF911F910895DE2BF8CF34
:10022000CF93DF9390E0FC01E656FF4F24918A576D
:100230009F4FFC0184918823D1F090E0880F991F93
:10024000FC01E859FF4FA591B491FC01EE58FF4F16
:10025000C591D49161110EC09FB7F8948C91E22F93
:10026000E0958E238C932881E223E8839FBFDF9162
:10027000CF9108958FB7F894EC91E22BEC938FBF58
:10028000F6CF3FB7F8948091890190918A01A091AF
:100290008B01B0918C0126B5A89B05C02F3F19F0AA
:1002A0000196A11DB11D3FBFBA2FA92F982F8827F6
:1002B000BC01CD01620F711D811D911D42E0660FD1
:1002C000771F881F991F4A95D1F708958F929F92A3
:1002D000AF92BF92CF92DF92EF92FF924B015C01FF
:1002E0000E9441016B017C010E9441016C197D0952
:1002F0008E099F09683E734081059105A8F321E0AE
:10030000821A9108A108B10888EEC80E83E0D81EB1
:10031000E11CF11C81149104A104B10429F7FF90A0
:10032000EF90DF90CF90BF90AF909F908F90089507
:10033000089590E080E008958F929F92AF92BF92CF
:100340000F931F93CF93DF93CDB7DEB7A1970FB66F
:10035000F894DEBF0FBECDBF19A2423008F44AE0C8
:100360008E010F5D1F4F842E912CB12CA12CA50165
:1003700094010E94A506E62FB901CA01EA3044F5AE
:10038000E05DD801EE938D01232B242B252B79F7EB
:1003900090E080E0109769F0FD0101900020E9F7FE
:1003A0003197AF014A1B5B0BBD0181E991E00E94CF
:1003B0008C00A1960FB6F894DEBF0FBECDBFDF91C3
:1003C000CF911F910F91BF90AF909F908F90089504
:1003D000E95CD7CFFC0101900020E9F73197AF012C
:1003E000481B590BBC0181E991E00C948C00CF9320
:1003F000DF93EC0160E08E810E94E20061E08E817B
:100400000E94E20060E08E810E94E2008BE891E0B1
:100410000197F1F7DF91CF910895CF92DF92EF929C
:10042000FF920F931F93CF93DF936C017C0187E0C2
:10043000E80EF11CD0E0C0E0062F10E0B8010C2E51
:1004400002C0759567950A94E2F76170F701819192
:100450007F010E94E2002196C430D10579F7C601E0
:10046000DF91CF911F910F91FF90EF90DF90CF9090
:100470000C94F701CF92DF92EF92FF920F931F93AC
:10048000CF93DF93EC01F62E642F8C810E94E20063
:100490008D818F3F19F060E00E94E2000F2D10E087
:1004A0008F8584FF25C06E0187E0C80ED11CF12C1A
:1004B000E12CB8010E2C02C0759567950A94E2F7FD
:1004C0006170F60181916F010E94E200FFEFEF1A67
:1004D000FF0A88E0E816F10461F7CE01DF91CF91C1
:1004E0001F910F91FF90EF90DF90CF900C94F70148
:1004F000B80184E0759567958A95E1F7CE010E9471
:100500000D026F2DCE01DF91CF911F910F91FF90C2
:10051000EF90DF90CF900C940D0240E0682F81E9BE
:1005200091E00C943A0281E00E948D028BE39FE1FE
:100530000197F1F70895CF93DF93613029F09091FF
:10054000A00198609093A0016093A4011092A5016E
:1005500090E49093A6018093A701805C8093A8010A
:1005600061E0809195010E941001809196018F3F7A
:1005700019F061E00E94100161E0809197010E94F2
:100580001001C1E9D1E09E01215931408091A001C3
:1005900084FD0BC084E090E021962817390744F4CD
:1005A00061E08E810E941001EECF88E090E0F4CFF0
:1005B0008BE39DE00197F1F760E0809195010E9447
:1005C000E20060E0809197010E94E2008091960134
:1005D0008F3F19F060E00E94E2008091A00184FD4D
:1005E00034C063E081E991E00E940D02CBE4D6E4DF
:1005F000CE010197F1F763E081E991E00E940D02DD
:100600002197F1F763E081E991E00E940D0283E513
:1006100092E00197F1F762E081E991E00E940D021A
:100620008091A00180620E948D0284E08093A101EC
:100630008CE00E948D020E94930282E08093A201CE
:1006400086E0DF91CF910C948D0280620E948D0232
:100650008BE496E40197F1F78091A00180620E94FB
:100660008D0283E592E00197F1F78091A00180620D
:100670000E948D02D5CF9091A401691710F06FEF01
:10068000690FE62FF0E0EF56FE4F9489890F8068DE
:100690000C948D0241E00E943A0281E090E00895BE
:1006A000CF92DF92EF92FF926C01990FEE08FF0854
:1006B000F7FE16C041E06DE281E991E00E943A0246
:1006C00066277727CB016C197D098E099F094AE0BF
:1006D0000E949C010196FF90EF90DF90CF900895CB
:1006E0004AE0C701B601FF90EF90DF90CF900C94E5
:1006F0009C0180918F0190919001C3970CF440C0B0
:1007000080918D0190918E01892BD1F50E949302E9
:1007100060E080E00E943B038CE091E00E94EA01EF
:1007200080918F01909190010E94500384E191E0AB
:100730000E94EA0160E08BE00E943B0386E191E0C9
:100740000E94EA0180918D0190918E010E945003D8
:1007500062E080E00E943B038FE191E00E94EA01A9
:100760008EE291E00E94EA0163E080E00E943B0398
:1007700084E391E00E94EA0184E491E00C94EA01B0
:10078000089580918F0190919001C2970CF040C024
:1007900080918D0190918E010197D1F50E94930275
:1007A00060E080E00E943B038CE091E00E94EA015F
:1007B00080918F01909190010E94500384E191E01B
:1007C0000E94EA0160E08BE00E943B0386E191E039
:1007D0000E94EA0180918D0190918E010E94500348
:1007E00062E080E00E943B038FE191E00E94EA0119
:1007F00084E491E00E94EA0163E080E00E943B0310
:1008000084E391E00E94EA018EE291E00C94EA0117
:10081000089580918F0190919001C3970CF440C08E
:1008200080918D0190918E010197D1F50E949302E4
:1008300060E080E00E943B038CE091E00E94EA01CE
:1008400080918F01909190010E94500384E191E08A
:100850000E94EA0160E08BE00E943B0386E191E0A8
:100860000E94EA0180918D0190918E010E945003B7
:1008700062E080E00E943B038FE191E00E94EA0188
:100880008EE291E00E94EA0163E080E00E943B0377
:1008900084E391E00E94EA018EE291E00C94EA0187
:1008A000089580918F0190919001C2970CF040C003
:1008B00080918D0190918E01892BD1F50E94930238
:1008C00060E080E00E943B038CE091E00E94EA013E
:1008D00080918F01909190010E94500384E191E0FA
:1008E0000E94EA0160E08BE00E943B0386E191E018
:1008F0000E94EA0180918D0190918E010E94500327
:1009000062E080E00E943B038FE191E00E94EA01F7
:1009100084E491E00E94EA0163E080E00E943B03EE
:1009200084E391E00E94EA0184E491E00C94EA01FE
:1009300008951F920F920FB60F9211242F933F9399
:100940008F939F93AF93BF93809185019091860180
:10095000A0918701B09188013091840123E0230F99
:100960002D3758F50196A11DB11D20938401809368
:10097000850190938601A0938701B09388018091AF
:10098000890190918A01A0918B01B0918C0101960F
:10099000A11DB11D8093890190938A01A0938B01C1
:1009A000B0938C01BF91AF919F918F913F912F9107
:1009B0000F900FBE0F901F90189526E8230F0296F8
:1009C000A11DB11DD2CFCF92DF92EF92FF920F9374
:1009D0001F93E82FF92F05C0015011092109310992
:1009E00061F1908196239417B9F305C00150110964
:1009F0002109310911F1908196239413F7CFC12C6D
:100A0000D12CE12CF12C0AC08FEFC81AD80AE80AC1
:100A1000F80A0C151D052E053F0579F08081862307
:100A2000841791F36C2D7D2D8E2D9F2D1F910F918D
:100A3000FF90EF90DF90CF90089560E070E080E04D
:100A400090E01F910F91FF90EF90DF90CF9008956D
:100A5000789484B5826084BD84B5816084BD85B599
:100A6000826085BD85B5816085BD80916E008160A5
:100A700080936E001092810080918100826080934B
:100A8000810080918100816080938100809180004D
:100A90008160809380008091B10084608093B10078
:100AA0008091B00081608093B00080917A00846072
:100AB00080937A0080917A00826080937A0080919E
:100AC0007A00816080937A0080917A0080688093B8
:100AD0007A001092C10064E084E10E949B0260E011
:100AE00089E00E94100161E08AE00E94100161E04B
:100AF0008CE00E94100161E08BE00E94100160E038
:100B00008AE00E94E20060E08CE00E94E20060E087
:100B10008BE00E94E20060E080E00E943B0389E4F9
:100B200091E00E94EA0162E080E00E943B038EE5D2
:100B300091E00E94EA0163E080E00E943B0380E7CD
:100B400091E00E94EA0160ED77E080E090E00E9491
:100B500066010E949302C3E0D0E023E2E22EF12C72
:100B6000412C34E0532E612C712C46EB242E40E0B6
:100B7000342E52EA852E50E0952E6EE8C62E60E0A7
:100B8000D62E70E0A72E70E0B72E60E08AE00E94BB
:100B9000E200CE010197F1F761E08AE00E94E200F5
:100BA000C7010197F1F760E08AE00E94E200E3EA02
:100BB000F0E06491EFE8F0E08491E82FF0E0EE0FD0
:100BC000FF1FE458FF4F8591949100E412E42FE059
:100BD00030E0462F0E94E3046115710581059105FF
:100BE00029F06F5F7F4F8F4F9F4F9F700E940E07BE
:100BF00026E933E44BE85CE30E9472070E94D606C4
:100C0000DB0124E630E00E940708A30192010E9464
:100C100086063093900120938F01F1018491F401B5
:100C20001491F6010491002309F44EC081110E9431
:100C3000B900E02FF0E0EE0FFF1FE458FF4FA59141
:100C4000B4918C91182391E080E009F490E09093A6
:100C50008D0180938E010E9409040E9451040E941C
:100C6000C1030E9409040E9479030E9451040E945A
:100C7000C1030E9479030E9409040E94C1030E94DB
:100C8000790380918F019091900161E0C2970CF0FF
:100C900060E08BE00E94E20080918D0190918E01D6
:100CA00060E0019709F061E08CE00E94E20064EFEF
:100CB00071E080E090E00E946601A114B10409F4A3
:100CC00064CF0E94000061CF90E080E0C0CFE1E9F6
:100CD000F1E01382128284E091E09183808387E0C7
:100CE00084838FEF858386E0868385E0878384E035
:100CF000808783E0818782E0828713861486158649
:100D00001686178661E080E10C949B02052E97FB06
:100D10001EF400940E949D0657FD07D00E94A50670
:100D200007FC03D04EF40C949D06509540953095E9
:100D300021953F4F4F4F5F4F089590958095709547
:100D400061957F4F8F4F9F4F0895A1E21A2EAA1BE6
:100D5000BB1BFD010DC0AA1FBB1FEE1FFF1FA2176B
:100D6000B307E407F50720F0A21BB30BE40BF50B68
:100D7000661F771F881F991F1A9469F760957095F1
:100D8000809590959B01AC01BD01CF010895A29F74
:100D9000B001B39FC001A39F700D811D1124911D4F
:100DA000B29F700D811D1124911D08950E94DD06D2
:100DB0006894B1110C946C0708950E94510788F053
:100DC0009F5798F0B92F9927B751B0F0E1F0660F0F
:100DD000771F881F991F1AF0BA95C9F714C0B13050
:100DE00091F00E946B07B1E008950C946B07672F98
:100DF000782F8827B85F39F0B93FCCF3869577957F
:100E00006795B395D9F73EF4909580957095619567
:100E10007F4F8F4F9F4F0895E89409C097FB3EF492
:100E200090958095709561957F4F8F4F9F4F992337
:100E3000A9F0F92F96E9BB279395F69587957795B5
:100E40006795B795F111F8CFFAF4BB0F11F460FF75
:100E50001BC06F5F7F4F8F4F9F4F16C0882311F0CD
:100E600096E911C0772321F09EE8872F762F05C0E1
:100E7000662371F096E8862F70E060E02AF09A957C
:100E8000660F771F881FDAF7880F9695879597F971
:100E9000089557FD9058440F551F59F05F3F71F06A
:100EA0004795880F97FB991F61F09F3F79F08795D1
:100EB0000895121613061406551FF2CF4695F1DF5A
:100EC00008C0161617061806991FF1CF86957105EA
:100ED000610508940895E894BB2766277727CB011E
:100EE00097F908950E9485070C94F6070E94E80779
:100EF00038F00E94EF0720F0952311F00C94DF07E3
:100F00000C94E50711240C946C070E94490770F3B8
:100F1000959FC1F3950F50E0551F629FF001729F9E
:100F2000BB27F00DB11D639FAA27F00DB11DAA1FAD
:100F3000649F6627B00DA11D661F829F2227B00DFA
:100F4000A11D621F739FB00DA11D621F839FA00D85
:100F5000611D221F749F3327A00D611D231F849FD5
:100F6000600D211D822F762F6A2F11249F5750402C
:100F70009AF0F1F088234AF0EE0FFF1FBB1F661FA7
:100F8000771F881F91505040A9F79E3F510580F070
:100F90000C94DF070C946C075F3FE4F3983ED4F3A6
:100FA000869577956795B795F795E7959F5FC1F714
:100FB000FE2B880F911D9695879597F9089597F9BF
:100FC0009F6780E870E060E008959FEF80EC0895EF
:100FD00000240A9416161706180609060895002418
:100FE0000A9412161306140605060895092E039492
:100FF000000C11F4882352F0BB0F40F4BF2B11F406
:1010000060FF04C06F5F7F4F8F4F9F4F08950E9416
:10101000C706B7FF0895821B930B0895EE0FFF1FBD
:0C1020000590F491E02D0994F894FFCFA6
:10102C00000000004A038C00990198015761746517
:10103C00723D20002500476173204C6B3D2000570A
:10104C002D56414C564520535441545553002020A5
:10105C004F464600472D56414C564520535441545B
:10106C005553200020204F4E00484F4D454D4144D4
:10107C004520454C454354524F4E49435300202084
:10108C00202047415320414E4420574154455200A3
:10109C0020204D4F4E49544F52494E4720535953DF
:0410AC0054454D005A
:00000001FF
