:020000040000FA
:100000000C9462000C948A000C948A000C948A0070
:100010000C948A000C948A000C948A000C948A0038
:100020000C948A000C948A000C948A000C948A0028
:100030000C948A000C948A000C948A000C948A0018
:100040000C9476050C948A000C9444050C941E05BF
:100050000C948A000C948A000C948A000C948A00F8
:100060000C948A000C948A000000000024002700F1
:100070002A0000000000250028002B0000000000DE
:1000800023002600290004040404040404040202DA
:100090000202020203030303030301020408102007
:1000A0004080010204081020010204081020000012
:1000B0000008000201000003040700000000000027
:1000C0000000C00511241FBECFEFD8E0DEBFCDBFBA
:1000D00011E0A0E0B1E0E4E7F6E102C005900D9286
:1000E000A037B107D9F722E0A0E7B1E001C01D9227
:1000F000AC3AB207E1F710E0C2E6D0E004C02197C5
:10010000FE010E94230BC136D107C9F70E94770672
:100110000C94380B0C94000096E0899FD0011124B8
:10012000A35CBD4F90967C936E935F9791E0919600
:100130009C939197E091AA02F091AB029091A90251
:10014000992339F0309751F0811108C080915902FC
:100150000994309719F05C968C91FACF0895CF925C
:10016000DF92EF92FF920F931F9396E0899FF00129
:100170001124E35CFD4F11A2278D30A12130310500
:1001800051F178F02230310509F451C023303105A6
:1001900009F452C01F910F91FF90EF90DF90CF9024
:1001A00008956623B9F361E070E00E948C002FB7D8
:1001B000F8948091840190918501A0918601B0917D
:1001C00087012FBF8093950290939602A093970288
:1001D000B0939802DFCF9FB7F894C0908401D0907D
:1001E0008501E0908601F09087019FBF0091950204
:1001F000109196022091970230919802C01AD10A6C
:10020000E20AF30A0091A7021091A80230E020E070
:100210000C151D052E053F0550F462E070E01F919E
:100220000F91FF90EF90DF90CF900C948C006111B4
:10023000B1CF63E070E0F3CF70E060E0F0CFFC019D
:10024000538D448D252F30E0842F90E0821B930B3B
:10025000541710F0CF96089501970895FC01918DE1
:10026000828D981761F0A28DAE0FBF2FB11D5D96E4
:100270008C91928D9F5F9F73928F90E008958FEF86
:100280009FEF0895FC01918D828D981731F0828D3A
:10029000E80FF11D858D90E008958FEF9FEF089591
:1002A000FC01918D228D892F90E0805C9F4F821BF5
:1002B00091098F7399270895FC01A48DA80FB92F78
:1002C000B11DA35ABF4F2C91848D90E001968F737E
:1002D0009927848FA689B7892C93A089B1898C919D
:1002E000837080648C93938D848D981306C00288EC
:1002F000F389E02D80818F7D80830895EF92FF92B6
:100300000F931F93CF93DF93EC0181E0888F9B8D38
:100310008C8D98131AC0E889F989808185FF15C0F2
:100320009FB7F894EE89FF896083E889F989808115
:100330008370806480839FBF81E090E0DF91CF91E4
:100340001F910F91FF90EF900895F62E0B8D10E006
:100350000F5F1F4F0F731127E02E8C8D8E110CC075
:100360000FB607FCFACFE889F989808185FFF5CFC0
:10037000CE010E945C01F1CFEB8DEC0FFD2FF11D42
:10038000E35AFF4FF0829FB7F8940B8FEA89FB89FD
:1003900080818062CFCFCF93DF93EC01888D88235B
:1003A000B9F0AA89BB89E889F9898C9185FD03C0D8
:1003B000808186FD0DC00FB607FCF7CF8C9185FFBD
:1003C000F2CF808185FFEDCFCE010E945C01E9CFA5
:1003D000DF91CF91089588E891E00E94500121E0DB
:1003E000892B09F420E0822F089580E090E0892B8A
:1003F00029F00E94EB0181110C9400000895AF9246
:10040000BF92CF92DF92EF92FF920F931F93CF9301
:10041000DF936C017B018B01040F151FEB015E0163
:10042000AE18BF08C017D10759F06991D601ED91F8
:10043000FC910190F081E02DC6010995892B79F797
:10044000C501DF91CF911F910F91FF90EF90DF9049
:10045000CF90BF90AF900895833081F028F4813021
:1004600099F08230A9F008958730A9F08830C9F05A
:100470008430B1F4809180008F7D03C08091800032
:100480008F7780938000089584B58F7784BD089519
:1004900084B58F7DFBCF8091B0008F778093B000C3
:1004A00008958091B0008F7DF9CFCF93DF93282FEF
:1004B00030E0F901E255FF4F8491F901E656FF4F14
:1004C000D491F901EA57FF4FC491CC23A1F08111D7
:1004D0000E942C02EC2FF0E0EE0FFF1FE458FF4FBC
:1004E000A591B491EC91ED2381E090E009F480E0D6
:1004F000DF91CF91089580E090E0FACF862F0C94A1
:1005000055021F93CF93DF93282F30E0F901E25576
:10051000FF4F8491F901E656FF4FD491F901EA5754
:10052000FF4FC491CC23A9F0162F81110E942C02F9
:10053000EC2FF0E0EE0FFF1FEE58FF4FA591B491A6
:100540008FB7F894EC91111108C0D095DE23DC939D
:100550008FBFDF91CF911F910895DE2BF8CF862FAB
:10056000642F0C948102CF93DF9390E0FC01E65658
:10057000FF4F24918A579F4FFC0184918823C9F033
:1005800090E0880F991FFC01E859FF4FA591B491A5
:10059000FC01EE58FF4FC591D49161110DC09FB77A
:1005A000F8948C91209582238C938881282328832A
:1005B0009FBFDF91CF910895623051F49FB7F894B7
:1005C0003C91822F809583238C93E8812E2BEFCF53
:1005D0008FB7F894EC912E2B2C938FBFEACF862FF8
:1005E000642F0C94B3023FB7F894809171019091FD
:1005F0007201A0917301B091740126B5A89B05C04A
:100600002F3F19F00196A11DB11D3FBFBA2FA92F91
:10061000982F8827BC01CD01620F711D811D911D8E
:1006200042E0660F771F881F991F4A95D1F70895FA
:100630008F929F92AF92BF92CF92DF92EF92FF92F2
:100640004B015C010E94F3026B017C010E94F302EA
:100650006C197D098E099F09683E734081059105DB
:10066000A8F321E0821A9108A108B10888EEC80E0B
:1006700083E0D81EE11CF11C81149104A104B10493
:1006800029F7FF90EF90DF90CF90BF90AF909F90B1
:100690008F900895089590E080E00895CF93DF93C0
:1006A000EC0160E08E810E94810261E08E810E94F7
:1006B000810260E08E810E9481028BE891E00197C7
:1006C000F1F7DF91CF910895CF92DF92EF92FF92F1
:1006D0000F931F93CF93DF936C017C0187E0E80EAB
:1006E000F11CD0E0C0E0062F10E0B8010C2E02C0D3
:1006F000759567950A94E2F76170F70181917F0122
:100700000E9481022196C430D10579F7C601DF919C
:10071000CF911F910F91FF90EF90DF90CF900C94AD
:100720004E03CF92DF92EF92FF920F931F93CF93DE
:10073000DF93EC01F62E642F8C810E9481028D8163
:100740008F3F19F060E00E9481020F2D10E08F852D
:1007500084FF25C06E0187E0C80ED11CF12CE12C6E
:10076000B8010E2C02C0759567950A94E2F7617086
:10077000F60181916F010E948102FFEFEF1AFF0ADB
:1007800088E0E816F10461F7CE01DF91CF911F9167
:100790000F91FF90EF90DF90CF900C944E03B80133
:1007A00084E0759567958A95E1F7CE010E94640310
:1007B0006F2DCE01DF91CF911F910F91FF90EF90A0
:1007C000DF90CF900C94640340E0682F85E292E0C4
:1007D0000C94910381E00E94E4038BE39FE1019775
:1007E000F1F70895CF93DF93823029F4909134028A
:1007F000986090933402809338021092390280E41A
:1008000080933A0280E180933B0280E580933C0232
:1008100061E0809129020E94B30280912A028F3FF9
:1008200019F061E00E94B30261E080912B020E9406
:10083000B302C5E2D2E09E012552324080913402DB
:1008400084FD0BC084E090E021962817390744F41A
:1008500061E08E810E94B302EECF88E090E0F4CF99
:100860008BE39DE00197F1F760E0809129020E94FF
:10087000810260E080912B020E94810280912A0215
:100880008F3F19F060E00E9481028091340284FD64
:1008900034C063E085E292E00E946403CBE4D6E4D6
:1008A000CE010197F1F763E085E292E00E946403D4
:1008B0002197F1F763E085E292E00E94640383E50B
:1008C00092E00197F1F762E085E292E00E94640312
:1008D0008091340280620E94E40384E080933502B8
:1008E0008CE00E94E4030E94EA0382E080933602D7
:1008F00086E0DF91CF910C94E40380620E94E403D0
:100900008BE496E40197F1F78091340280620E94B3
:10091000E40383E592E00197F1F78091340280626D
:100920000E94E403D5CF41E00E94910381E090E072
:100930000895FB0101900020E9F73197AF01461BB4
:10094000570BDC01ED91FC910280F381E02D0994BD
:10095000CF92DF92EF92FF920F931F93CF93DF938B
:10096000CDB7DEB7A1970FB6F894DEBF0FBECDBFEF
:100970006B017C01F7FE3EC041E06DE285E292E052
:100980000E94910322273327A9012C193D094E0902
:100990005F0919A28E010F5D1F4F9AE0C92ED12C5D
:1009A000E12CF12CCA01B901A70196010E94D70AD6
:1009B000605DF80162938F012115310541055105F4
:1009C00089F790E080E0309729F0BF0185E292E05E
:1009D0000E9499040196A1960FB6F894DEBF0FBE4F
:1009E000CDBFDF91CF911F910F91FF90EF90DF90DE
:1009F000CF900895AC019B0119A28E010F5D1F4F8E
:100A00008AE0C82ED12CE12CF12CCA01B901A70132
:100A100096010E94D70A605DF80162938F0121154B
:100A200031054105510589F790E080E0309799F252
:100A3000BF0185E292E00E949904CDCF1F920F92F0
:100A40000FB60F9211242F933F934F935F936F93A1
:100A50007F938F939F93AF93BF93EF93FF9388E818
:100A600091E00E945C01FF91EF91BF91AF919F9146
:100A70008F917F916F915F914F913F912F910F9047
:100A80000FBE0F901F9018951F920F920FB60F92E6
:100A900011242F938F939F93EF93FF93E0919801ED
:100AA000F09199018081E0919E01F0919F0182FD7A
:100AB0001BC090818091A1018F5F8F732091A20153
:100AC000821741F0E091A101F0E0E857FE4F958FC9
:100AD0008093A101FF91EF919F918F912F910F90A2
:100AE0000FBE0F901F9018958081F4CF1F920F9228
:100AF0000FB60F9211242F933F938F939F93AF9331
:100B0000BF938091840190918501A0918601B0915D
:100B100087013091700123E0230F2D3758F501969E
:100B2000A11DB11D209370018093840190938501D4
:100B3000A0938601B0938701809171019091720119
:100B4000A0917301B09174010196A11DB11D809314
:100B5000710190937201A0937301B0937401BF91DE
:100B6000AF919F918F913F912F910F900FBE0F905A
:100B70001F90189526E8230F0296A11DB11DD2CF14
:100B800010928B0110928A0188EE93E0A0E0B0E011
:100B900080938C0190938D01A0938E01B0938F016F
:100BA0008CE191E0909389018093880185EC90E03D
:100BB000909395018093940184EC90E09093970139
:100BC0008093960180EC90E0909399018093980136
:100BD00081EC90E090939B0180939A0182EC90E0ED
:100BE00090939D0180939C0186EC90E090939F01EF
:100BF00080939E011092A1011092A2011092A30174
:100C00001092A40110923F021092430210924202ED
:100C1000109244028AE391E090933E0280933D0259
:100C2000E9E5F2E01082148213821582369682E0A2
:100C3000E539F807B9F784E091E09093A00280933A
:100C40009F0280E091E09093A2028093A10284E051
:100C50008093A3028093A40228E031E030939E02A7
:100C600020939D022AE030E03093A6022093A50253
:100C700024EF31E03093A8022093A7021092AB0238
:100C80001092AA021092990210929A0210929B025C
:100C900010929C021092A902109228021092270230
:100CA0002EE231E030932602209325029CE09093BF
:100CB00029029FEF90932A029BE090932B0295E0EC
:100CC00090932C0280932D0283E080932E0282E089
:100CD00080932F0210923002109231021092320251
:100CE000109233021092340281E00C94F203789453
:100CF00084B5826084BD84B5816084BD85B5826021
:100D000085BD85B5816085BD80916E0081608093D1
:100D10006E0010928100809181008260809381003A
:100D2000809181008160809381008091800081604A
:100D3000809380008091B10084608093B1008091A5
:100D4000B00081608093B00080917A0084608093CD
:100D50007A0080917A00826080937A0080917A0094
:100D6000816080937A0080917A00806880937A0015
:100D70001092C10082E00E94F20360E471E085E21B
:100D800092E00E949904E0913802E23008F059C0E4
:100D9000E150F0E0EB5DFD4F848980680E94E40340
:100DA00060E571E085E292E00E94990460ED77E0F1
:100DB00080E090E00E9418030E94EA0322242A9413
:100DC000322C54E0452E512C612C712C60E0862E83
:100DD00060E0962E81E08093A9028FB7F89440914D
:100DE00084015091850160918601709187018FBFC8
:100DF0008091990290919A02A0919B02B0919C02DD
:100E0000481B590B6A0B7B0B8091A5029091A6029F
:100E1000B0E0A0E084179507A607B70708F098C1CF
:100E2000C0E08091A302C81770F4E0919F02F09196
:100E3000A002EC0FF11D62E080810E94B302CF5F3F
:100E4000F0CFE1E0A6CFB12C8091A402B81608F053
:100E500061C00B2D10E0E091A102F091A202E00F21
:100E6000F11F61E080810E94B302E091A102F09144
:100E7000A202E00FF11F60E080810E94810281E008
:100E800090E0A0E0B0E00B2C04C0880F991FAA1FCF
:100E9000BB1F0A94D2F76C017C01E094F094A12C62
:100EA0008091A302A816F8F4CA2DD0E0E0919F0229
:100EB000F091A002EC0FFD1F80810E945502249644
:100EC000CC0FDD1FC35CDD4F892B41F488819981F4
:100ED0008C299D2999838883A394E2CF8881998165
:100EE0008E219F21F7CFE091A102F091A202E00FA5
:100EF000F11F61E080810E9481028091A1029091A6
:100F0000A202080F191F60E0D8018C910E94B30261
:100F1000B3949ACF2DE3C22E22E0D22EE6018F8D1C
:100F200098A1892B21F41C8E3E8E2D8E19A2269617
:100F3000E9E7F2E0EC17FD0791F710E096E0B92E33
:100F40008091A302181708F052C000E0E12EF12CA6
:100F5000EE0CFF1C97012B5B3D4F79012091A40201
:100F6000021708F042C0D7016D917C91002E02C09B
:100F7000769567950A94E2F7129F90011124200F4D
:100F8000311DEDE3F2E080E0458D568D24173507E5
:100F900009F4CBC28F5F36968A30B1F760FF23C069
:100FA000EDE3F2E090E080E0448D411117C0E09164
:100FB0009D02F0919E02E20FF31F6081B89EF00146
:100FC000B99EF00D1124E35CFD4F648F368F258FA1
:100FD00010A2178E61E00E94AF0005C00196369600
:100FE0008A30910509F70F5FB9CF1F5FA9CF80E065
:100FF000F60191A19111892FF6E0CF0ED11CCC15ED
:10100000DD05B1F79FB7F8944091840150918501B7
:1010100060918601709187019FBF40939902509320
:101020009A0260939B0270939C02882309F490C0FB
:1010300080915E02882309F48BC080915C029091BC
:101040005D02019709F084C0C0915902C0938301E9
:10105000C11183C0C0907E01D0907F01E0908001DB
:10106000F0908101809182018823C9F080917D01F7
:101070008B3209F016C28091790190917A01A0918A
:101080007B01B0917C018C0D9D1DAE1DBF1D809319
:10109000750190937601A0937701B0937801E1E018
:1010A000809138028111E0E0E195F0E0EB5DFD4FC9
:1010B000848980680E94E403C701B6010E94A804E5
:1010C00041E060917D0185E292E00E949103609190
:1010D000790170917A0180917B0190917C010E944D
:1010E000A80480918201882381F06CE671E085E29A
:1010F00092E00E949904609175017091760180914F
:101100007701909178010E94A804E0913802E230C2
:1011100008F009C2E150F0E0EB5DFD4F8489806882
:101120000E94E403609175017091760180917701CE
:10113000909178010E94A8048114910409F44ACE88
:101140000E94EB01882309F439CE0E94000036CEBC
:101150001092A902109283017DCF0E94EA03CA3245
:1011600009F065C01092790110927A0110927B010A
:1011700010927C0110927E0110927F0110928001EA
:1011800010928101109275011092760110927701F0
:101190001092780110928201E0918301E43309F00A
:1011A00091C0209175013091760140917701509165
:1011B0007801211531054105510509F072C04092B1
:1011C00075015092760160927701709278018FEBF1
:1011D0008E0F843008F03ECF80917501909176019A
:1011E000A0917701B091780180937E0190937F0167
:1011F000A0938001B0938101109275011092760145
:1012000010927701109278018BE2E13439F08DE28F
:10121000E23421F08AE2E33409F08FE280937D0129
:1012200064E670E080E090E00E94180313CFC133C1
:1012300009F0B2CF60E671E088E891E00E9499047D
:1012400069E671E088E891E00E94990420917501B7
:101250003091760140917701509178012115310547
:101260004105510569F421E030E040E050E0209371
:1012700075013093760140937701509378018CCFBC
:10128000AAE0B0E00E94180B6F5F7F4F8F4F9F4F17
:101290006093750170937601809377019093780144
:1012A0007BCFAAE0B0E00E94180B6C5F7F4F8F4F9E
:1012B0009F4F6093750170937601809377019093AF
:1012C000780185CFE733D9F420917501309176010B
:1012D000409177015091780187E090E0A0E0B0E084
:1012E000211531054105510509F448C1AAE0B0E0D6
:1012F0000E94180B695F7F4F8F4F9F4FDACFE0330B
:1013000009F015C120917501309176014091770166
:1013100050917801211531054105510509F457CF48
:10132000AAE0B0E00E94180BC4CF20917501309163
:1013300076014091770150917801211531054105E1
:10134000510569F422E030E040E050E0209375015F
:1013500030937601409377015093780138CFAAE01B
:10136000B0E00E94180B6E5F7F4F8F4F9F4FA1CF51
:10137000209175013091760140917701509178016B
:1013800085E090E0A0E0B0E0211531054105510570
:1013900009F4F4C0AAE0B0E00E94180B6B5F7F4F25
:1013A0008F4F9F4F86CF20917501309176014091EC
:1013B000770150917801211531054105510529F436
:1013C00028E030E040E050E0C1CFAAE0B0E00E9469
:1013D000180B685F7F4F8F4F9F4F6BCF80917501C8
:1013E00090917601A0917701B09178018093790175
:1013F00090937A01A0937B01B0937C0181E080936C
:101400008201E5CE209175013091760140917701FE
:1014100050917801211531054105510569F483E0AA
:1014200090E0A0E0B0E08093750190937601A093E6
:101430007701B09378010ECEAAE0B0E00E94180BBD
:101440006D5F7F4F8F4F9F4F609375017093760153
:101450008093770190937801FDCD209175013091B3
:1014600076014091770150917801211531054105B0
:10147000510529F426E030E040E050E067CFAAE0D3
:10148000B0E00E94180B6A5F7F4F8F4F9F4F11CFC4
:10149000AAE0B0E00E94180B675F7F4F8F4F9F4F0D
:1014A00008CF8D3289F48091790190917A01A091D1
:1014B0007B01B0917C01A7019601281B390B4A0BD7
:1014C0005B0BDA01C901E3CD8A32A9F420917901DD
:1014D00030917A0140917B0150917C01C701B601A6
:1014E0000E94C70A6093750170937601809377011B
:1014F00090937801D4CD8F3209F0D1CD209179012C
:1015000030917A0140917B0150917C01C701B60175
:101510000E94F90A20937501309376014093770178
:1015200050937801BCCDE1E0F6CD617054CDE2334B
:1015300009F4FBCEE53309F41BCFE83309F433CFCC
:10154000E33209F44BCFE33309F45CCFE63309F41B
:1015500084CFE93309F03BCE2091750130917601BB
:1015600040917701509178012115310541055105D0
:1015700009F08ECF89E090E0A0E0B0E080937501A3
:1015800090937601A0937701B093780120CEDB0190
:101590008F939F930E94180BBF91AF91A29F800DD4
:1015A000911DA39F900DB29F900D11240895A1E26B
:1015B0001A2EAA1BBB1BFD010DC0AA1FBB1FEE1FCD
:1015C000FF1FA217B307E407F50720F0A21BB30B18
:1015D000E40BF50B661F771F881F991F1A9469F794
:1015E00060957095809590959B01AC01BD01CF01F0
:1015F0000895052E97FB1EF400940E94100B57FDD2
:1016000007D00E94D70A07FC03D04EF40C94100BAD
:1016100050954095309521953F4F4F4F5F4F08951E
:1016200090958095709561957F4F8F4F9F4F08954E
:101630000E94290BA59F900DB49F900DA49F800D33
:10164000911D11240895EE0FFF1F0590F491E02DD8
:101650000994A29FB001B39FC001A39F700D811D8B
:101660001124911DB29F700D811D1124911D0895AB
:10167000F894FFCF0A0908070E0F101137383944C4
:1016800034353643313233422A30234100000000E2
:101690007E01FF011F01CB0150012E01420100001C
:1016A00000009304FF014B034A0300000000EF0217
:1016B000AF027E0220556E6F2043616C63756C61D2
:1016C000746F720020486F6D654D616465205465CC
:1016D00063682000427574746F6E2031000D0A003B
:0416E000203D0000A9
:107E0000112484B714BE81FFF0D085E080938100F7
:107E100082E08093C00088E18093C10086E0809377
:107E2000C20080E18093C4008EE0C9D0259A86E02C
:107E300020E33CEF91E0309385002093840096BBD3
:107E4000B09BFECF1D9AA8958150A9F7CC24DD24C4
:107E500088248394B5E0AB2EA1E19A2EF3E0BF2EE7
:107E6000A2D0813461F49FD0082FAFD0023811F036
:107E7000013811F484E001C083E08DD089C08234E0
:107E800011F484E103C0853419F485E0A6D080C0E4
:107E9000853579F488D0E82EFF2485D0082F10E0AE
:107EA000102F00270E291F29000F111F8ED06801E7
:107EB0006FC0863521F484E090D080E0DECF843638
:107EC00009F040C070D06FD0082F6DD080E0C81688
:107ED00080E7D80618F4F601B7BEE895C0E0D1E017
:107EE00062D089930C17E1F7F0E0CF16F0E7DF06D8
:107EF00018F0F601B7BEE89568D007B600FCFDCFD4
:107F0000A601A0E0B1E02C9130E011968C91119780
:107F100090E0982F8827822B932B1296FA010C0160
:107F200087BEE89511244E5F5F4FF1E0A038BF0790
:107F300051F7F601A7BEE89507B600FCFDCF97BE46
:107F4000E89526C08437B1F42ED02DD0F82E2BD052
:107F50003CD0F601EF2C8F010F5F1F4F84911BD097
:107F6000EA94F801C1F70894C11CD11CFA94CF0C13
:107F7000D11C0EC0853739F428D08EE10CD085E9AC
:107F80000AD08FE07ACF813511F488E018D01DD067
:107F900080E101D065CF982F8091C00085FFFCCF94
:107FA0009093C60008958091C00087FFFCCF809118
:107FB000C00084FD01C0A8958091C6000895E0E648
:107FC000F0E098E1908380830895EDDF803219F02E
:107FD00088E0F5DFFFCF84E1DECF1F93182FE3DFCA
:107FE0001150E9F7F2DF1F91089580E0E8DFEE27F6
:047FF000FF270994CA
:027FFE00040479
:00000001FF
